:020000040000FA
:1000000008100020F50000000F01000011010000A1
:1000100000000000000000000000000000000000E0
:1000200000000000000000000000000013010000BC
:100030000000000000000000150100001701000092
:100040001901000019010000190100001901000048
:100050001901000000000000190100001901000052
:100060001901000019010000190100001901000028
:100070001901000019010000190100001901000018
:100080001901000019010000190100001901000008
:1000900019010000190100001901000019010000F8
:1000A000190100001901000000000000000000001C
:1000B0000000000000000000000000000000000040
:1000C0000348854600F0E4F8004800470572000048
:1000D00008100020401E00BF00BF00BF00BF00BFCF
:1000E00000BF00BF00BF00BF00BF00BF00BFF1D115
:1000F000704700000321094802680A43026008486B
:1001000002680A4302600748804707480047FEE745
:10011000FEE7FEE7FEE7FEE7FEE7000024050040FD
:100120005405004061700000C1000000F0B51FB42C
:100130000646002082B005464024019100901BE055
:10014000019922460F46304600F091F8049A059B2B
:10015000801A994110D310461946224600F077F8CC
:10016000361A8F410197224601200021009F00F09E
:100170006EF838184D4100902046641E0028DFDCE0
:10018000019B00982946324607B0F0BDF0B51FB478
:1001900086B000200090019002900698069980B2E7
:1001A00004900798090C02040014114307900027DB
:1001B000089D099806913E463C4603900398A9B2D3
:1001C0000204000C039004982D0C154348430021B1
:1001D000224600F03CF8C719714110340E46402CFD
:1001E000ECDB3846029A00F032F8009A019B801846
:1001F0000090594102980191103002904028CCDBC8
:1002000000980BB0F0BD03460B439B0703D009E0F9
:1002100008C9121F08C0042AFAD203E00B78037041
:10022000401C491C521EF9D27047D2B201E0027044
:10023000401C491EFBD270470022F6E710B513465A
:100240000A4604461946FFF7F0FF204610BD10B5D8
:10025000202A04DB0146203A9140002010BD914045
:1002600020239C1A0346E3401943904010BD10B56B
:10027000202A04DB0846203AD040002110BD0B465E
:10028000D340D0402024A21A91400843194610BD03
:10029000064C0125064E05E0E36807CC2B430C3CD9
:1002A00098471034B442F7D3FFF70EFF6073000095
:1002B00080730000F0B51FB484B0049CFF34813417
:1002C000207C400702D1A069002802D0012009B09B
:1002D000F0BD00200146E4E02369002B70D1A16845
:1002E0000291069D07980022691A904168D30298EE
:1002F00007992E1A009D91410198751B8141F5D3F4
:10030000009B0698019D0799C01AA9410023029AF3
:10031000FFF70CFF05460E46019900984907C008F3
:10032000084305994718092102988901884214D188
:1003300000210846029103910BE03946049800F031
:1003400074F902990398491C0022504148370291E0
:100350000390491BB041F0D399E00D2189018842F7
:1003600015D10021029103910BE03946049800F069
:1003700060F902990398491C0022504168370291A4
:10038000039008460399401BB141EED37FE0012161
:100390008902884215D100210846029103910BE0A1
:1003A0003946049800F031F902990398491C00225B
:1003B0005041803702910390491BB041F0D366E071
:1003C00072E011218901884214D10021084602916E
:1003D00003910BE03946049800F01BF90299039849
:1003E000491C00225041883702910390491BB041BB
:1003F000F0D34CE00921C901884215D100200290B8
:1004000003900BE03946049800F007F9029803992D
:10041000401C0022514190370391029002990398A9
:10042000491BB041EED332E015218901884215D134
:100430000020029003900BE03946049800F0F1F898
:1004400002980399401C00225141A8370391029061
:1004500002990398491BB041EED318E000210846E9
:100460000291039110E0A06839468209049800F0D7
:10047000C8F802990398491C002250410291039048
:10048000A068C008C7190398491BB041EBD30021ED
:100490002A463346A068FFF779FE009A019B801830
:1004A00059410191009044E006990098081AA1680A
:1004B0001A188A4200D9C81A45076D0F461B0198C1
:1004C00000994707C8080599384341180498DB0884
:1004D0001818F208C830FFF796FE20690027821925
:1004E0002261009901988919784100910190A068D2
:1004F000824202D1049800F026F8002D19D0012084
:10050000A840019A00995207C9081143059A401E54
:10051000515C01402069C20804981018C030017273
:10052000206940192061009901984919784100918A
:100530000190009B0699079A0198591A904100D2A0
:10054000CAE60020C3E610B50446FF34813409230F
:100550000146A2689B01C8319A4202D100F065F8B9
:1005600025E00D239B019A4202D100F062F81EE0C3
:1005700001239B029A4202D100F047F817E01123B1
:100580009B019A4202D100F044F810E00923DB01FC
:100590009A4202D100F041F809E015239B019A42EA
:1005A00002D100F03EF802E0920900F02AF80020A3
:1005B000206110BDF8B5064617460D461920C91929
:1005C0008001814205D1002D03D0854201D2A806C9
:1005D00001D00120F8BD00F04CF83446FF348134DE
:1005E000E760A56000253046656100F043F83046BD
:1005F000C021C830FFF720FE2561A5610020E5611C
:10060000F8BD00B500F078FE00BD00B501F002FDB8
:1006100000BD00B502F092FB00BD00B503F022FA68
:1006200000BD00B504F0B2F800BD00B504F042FF13
:1006300000BD00B505F0D2FD00BDF0B515460E4673
:100640000746002405E0E000C119801906F020FEED
:10065000641CAC42F7D3F0BD70B50D4606460024CD
:10066000E0008119401906F013FE641C102CF7DB22
:1006700070BD704710B5C821FFF7DEFD10BD00B595
:1006800000F002F800BD0000F0B5D8B0FE491E91A0
:10069000016811914168109181683691C1681D917E
:1006A000016935914169349181693291C1691C9127
:1006B000016A3391416A1B91816A2E91C16A31911D
:1006C000016B2D91416B1A91816B2C91C16B309113
:1006D000016C2F91416C1991816C2B91C16C2A9105
:1006E000016D4291416D3B91816D4191C16D409190
:1006F000016E3F91416E3A91816E3E91C16E39918A
:10070000016F3D91416F3891816F3C91C16F37917D
:10071000014680310A6829924A6821928A682892A3
:10072000CA6820920A6927924A691F928A692592AB
:10073000CA6926920A6A24924A6A23928A6A18929D
:10074000CA6A22920A6B17924A6B16928A6B1592AA
:10075000CA6B14920A6C13924A6C12920C22579232
:10076000339C2B9A1D9D54403D9A369F5440259AA8
:100770005440139A54401A9A5540409A5540219A31
:100780005540229A554007951F22D5411B9B2A9A16
:100790002E465340389A664053400F96269A359E0F
:1007A0005340129A2C9D53402D9A6E405740419AC7
:1007B0003F9D5740299A6E405740289D189A6E4099
:1007C0005740179D1A466E40BE467A4037461F2551
:1007D000EB417B409C46349E309B119D5E403A9B92
:1007E0005E40209B5E40169B5E40334663402E9CDD
:1007F0006540429C65403C9C6540249C6540049556
:100800001F253446EC41049D319E6C40109D75407F
:100810003B9E7540379E7540239E754002957D40F6
:100820000A95199F1C9E079D7E40399F7E401F9F01
:100830007E40149F7E401F270396FE4177467E40F0
:100840000996329F2F9E77403E9E7740279E7740A5
:10085000159E77407D400895029D1F26F5417D40FD
:100860000695039E049D0A276E4007960F9E119DD4
:1008700075402D9EAE466640FE4104963A9E089D08
:100880006E40FE411F9F03965F4015263D46F54191
:100890000295139F069D19266F40F7411E9D0197F3
:1008A0002E1D2F681E96039E049DAE4375466E4016
:1008B00077402D97029F039EB743049E774046974B
:1008C000019F029EB743039E77404497019F029E7B
:1008D000BD4375404395049E7546AE437E40329FAE
:1008E00065466F401225EF4105972B9F069D489660
:1008F0006F401626F74104973B9F1E265740F7414D
:100900000397219E0A9D6E400925EE410296169F8F
:10091000089D6F400125EF41BE46039D049F2E4672
:10092000BE43059F7E403B96029E049FAE437E40A1
:100930001196029E7546039FB5437D403A95059FEB
:100940007546AF4377404797059F049E0A9DBE4377
:1009500077467E401D9F21966F401F25EF410597EA
:100960002C9F099E069D77401D26F7410497399FCD
:1009700013265F40F741259E03976E401C25EE41EC
:1009800002960F9E249D75401726F541AE463D46C2
:10099000049F2E46BE43059F7E405296029E049FB2
:1009A000AE437E404C96029E7546039FB5437D4004
:1009B0005095059F7546AF4377405197059F049E1C
:1009C000BE436E4056961B9F079E12257740EF410F
:1009D00005972E9F0F9E77400E26F7410497419F63
:1009E0001B266740F7410397209E089D6E401825FF
:1009F000EE410296159D664675400426F541AE46C9
:100A00003D46049F2E46BE43059F7E405596029E5E
:100A1000049FAE437E404F96029E7546039FB543AA
:100A20007D405495059F7546AF4377404D97059F90
:100A3000049EBE436E404196359F099E0125774036
:100A4000EF410597199F04265F40F7410497389FAF
:100A5000079E0B2577400C26F741379E039756409B
:100A6000EE41189D029665401F26F541AE463D4673
:100A7000049F2E46BE43059F7E403796029E049FEC
:100A8000AE437E40754601E0A07200003996029E9A
:100A9000039FB5437D404B95059F7546AF43774017
:100AA0003897059F049EBE436E40109D2596554085
:100AB00005951A9E0A9D3F9F6E400A25EE410496B9
:100AC000099E0B257740EF41279D66467540162607
:100AD000F54102950397079E129D75401926F54131
:100AE0000195049E059DB7436F401E9D40CD1E9508
:100AF0007E401096029E039DAE43049D6E4012966A
:100B0000019E029DAE43039D6E404596019E059D4C
:100B1000B543029E75401A95059E049DB543019EFE
:100B200075401C9E15955E401225EE412A9F079D3B
:100B300005966F401625EF41429E0F9D04976E402B
:100B40001F27FE41299F0A2567400396EF41099E12
:100B5000179D029775400226F541AE46049F039DFE
:100B6000059EBD4375402095039E029DB5437D4083
:100B70001695029F7546BD4375401F95059E7546A7
:100B8000AE437E401396049F059EB743369E6F404A
:100B900019976640309F089C3E9D67401D24E741A1
:100BA000644665401424E541AE46269D079C654099
:100BB0001C24E541239C029554401725EC410194E7
:100BC0007446BC4374401C94029D7446A5437D400A
:100BD0004E95029D019CB743AC4375466C401B94F7
:100BE000019D3446AC43029D339E6C402394019C8E
:100BF0006740069C269766401324E641319F059680
:100C000057400E22D741409C0A9A149D54401B2203
:100C1000D441A646099C289A5D4062401924E241CD
:100C20007446BC4304237440DD4124947446134647
:100C3000A3437B40AE435640189317962B46059E20
:100C400093436340B7436F40349E1D934997089A7E
:100C50002F9B56400122D641624653400522D34184
:100C60003D9D069A0F9C55400D22D5413C9A229FEE
:100C700062400C24E24114460A9A57401F22D74191
:100C80002A469A43724040922246AA435A405392BF
:100C90003A46A2436A403546BD43B34365404A9550
:100CA0007B4022931492219B489A129E5A40569B55
:100CB000169D5A40419B6E404E9D5A40259B6E406A
:100CC0005A40189B199F5E40539B159D5E407D4086
:100CD0001F230796269FDE417D405640499F229B59
:100CE000B4467D406B40119D469C3A9E6C404C9DA5
:100CF0006C404F9D6C40399D6C401D46654006948C
:100D0000449C7440509E7440549E74404B9E74406A
:100D100001941F24E341019C1F9F6340459E1B9C3F
:100D20007E4066401D9C6640149C66403746574096
:100D30002D9C3B9A5440529A5440559A5440379AAD
:100D400054401F22D6413246A6466240109E209C47
:100D500066401C9C6640249C6640409C6640019C0A
:100D6000029666400A96139E1A9C7440239E744015
:100D7000179E74404A9E66401F240396E641069CD7
:100D800066400996439E479C6640519C66404D9C38
:100D90006640389C66400196079E019C6640089616
:100DA000029E1F24E641019C66400696039E7446FF
:100DB000664007962D9C66467440A646119C0A26FE
:100DC0005440F4410494089E1B9C74400A26F4414C
:100DD0000394179E15247E40E6410296069E259CAC
:100DE00074401926F4410194049E039CB443764652
:100DF000744011941E9C40CC1E94119C6640119628
:100E0000029E039CA643049C66403696029E019C6B
:100E1000B443039E74403594019E7446B443029ECD
:100E200074403294049E7446A643019C66403396F7
:100E3000439E12245E40E6410596219E069C664034
:100E40001624E64104961C9E1E246E40E64103963D
:100E5000189E0A9C66400924E6410296089E149C4E
:100E600074400126F441A646039E049CA643059CBB
:100E700066402E96039E029CB443049E74402D94BB
:100E8000029E7446B443039E74402C94059C76469F
:100E9000B443029E74402F94059E049CB44376464E
:100EA00074402B94129E0A9C66401F24E6410596CE
:100EB000099E3A9C74401D26F441239E04947E4072
:100EC0001324E6410396419E069C66401C24E6419D
:100ED0000296379C664674401726F441A646039E48
:100EE000049CA643059C66404296039E029CB44324
:100EF000049E74404194029E7446B443039E744021
:100F00003F94059C7646B443029E74403E94059EF1
:100F1000049CB443764674403D94079E159C7440EF
:100F20001226F44105943B9E644666400E24E64139
:100F30004C9C049654401B26F441A646089E1D9CDA
:100F400074401826F4410294389C04265C40F44115
:100F50000194049C7646A643059C66403C96029C00
:100F60007646B443049E74402994029E019CB44387
:100F7000764674402894019E059CB443029E7440BA
:100F80002794049E059CA643019C66402596449E9A
:100F9000099C66400124E6410596139E04247E4088
:100FA000E6410496269E079C66400C24E641249C5C
:100FB00003966C400B26F441A646399C1F265440EC
:100FC000F4410194049E039CB443059E7440249410
:100FD0007446039EB443049E74401894019C764664
:100FE000B443039E74401794019E059CB443764617
:100FF00074401594049E059CA643019C6640109C79
:1010000013966C40A646169E0A9C66400A24E6414A
:101010000496509E099C74400B26F4414D9E039407
:101020005E4034461626F4410294229E079C74408A
:101030001926F4410194039E049CA643744666401D
:1010400010961E9E10CE1E96109E66401096039E11
:10105000029CB443049E66401D96019E029CA643DA
:10106000039C664074463496019EB443029E6640DB
:101070001C96049E7446A643019C66401B961A9ECD
:1010800012247E40E6410596199E079C6640162470
:10109000E6410496529E644666401F24E64103964C
:1010A0004F9E0A245640E6410296099E4B9C74408E
:1010B0000226F441A646049E039CB443059E744058
:1010C0003194039E029CB443049E74401A94029E81
:1010D0007446B443039E74403094059E7446A64300
:1010E000029C66401996059E049CB4437646744063
:1010F000469E2A945640B6461F9E089C66401D2474
:101100003246E241519C14265C40F4410394499ECE
:10111000079C049266401C24E6410296409E1724D8
:101120006E403246E241049E039C0192B4437246F3
:1011300054403B94029E039C019AA643049C664043
:101140004096029E039CB24362403A92019C7246D2
:10115000A24372403992049C72469443019A5440CF
:101160003894069C489A62401324E241209C0592E0
:101170006C400E22D4414E9D0A9A049455401B2285
:10118000D541549E099A56401922D6414A9AB646EC
:101190007A400424E241049C2E46A643059C17464F
:1011A000664037967646049CAE4366402196764666
:1011B000059CB743944374406F401F94059D049C65
:1011C0006646AC4354402694089C459A069D62406E
:1011D0000124E241479C20975C400523DC41569B5B
:1011E0000A9F6B400D25EB41559D75400C26F5413E
:1011F000539E7E401F27FE411F46A743574023971B
:101200002F469F43674022973746AF435F401346C0
:101210009443B34316976B407440579A1294521EEE
:101220001493579201D0FFF79BFA119A0260109A1B
:101230004260369A82601D9AC260359A0261349A81
:101240004261329A82611C9AC261339A02621B9A8D
:1012500042622E9A8262319AC2622D9A02631A9A6F
:1012600042632C9A8263309AC2632F9A0264199A5D
:1012700042642B9A82642A9AC264429A02653B9A1B
:101280004265419A8265409AC2653F9A02663A9ADF
:1012900042663E9A8266399AC2663D9A0267389AD9
:1012A00042673C9A8267379AC267299808602198FA
:1012B0004860289888602098C860279808611F981F
:1012C0004861259888612698C86124980862239807
:1012D0004862189888622298C8621798086316981E
:1012E0004863159888631498C86313980864129823
:1012F000486458B0F0BD0000F0B5D8B00546521EA5
:101300004CD40B68FF4E5C085C4034406340640082
:1013100063409C08FC4F5C403C406340A400634039
:101320001C09FA4F5C403C406340240163401C0AA6
:10133000FF275C403F023C406340240263404C680E
:1013400008316708674037407C407E007440A6083B
:10135000ED4F66403E407440B60074402609EB4FA6
:1013600066403E40744036017440260AFF276640BE
:101370003F023E4074403602744027049EB23E4312
:101380002F68240C7E401B0C240423432E606C68C1
:10139000521E63406B600835002AB2DADC491E91A8
:1013A000016811914168109181683691C1681D9161
:1013B000016935914169349181693291C1691C910A
:1013C000016A3391416A1B91816A2E91C16A319100
:1013D000016B2D91416B1A91816B2C91C16B3091F6
:1013E000016C2F91416C1991816C2B91C16C2A91E8
:1013F000016D4291416D3B91816D4191C16D409173
:10140000016E3F91416E3A91816E3E91C16E39916C
:10141000016F3D91416F3891816F3C91C16F379160
:10142000014680310A6829924A6821928A68289286
:10143000CA6820920A6927924A691F928A6925928E
:10144000CA6926920A6A24924A6A23928A6A189280
:10145000CA6A22920A6B17924A6B16928A6B15928D
:10146000CA6B14920A6C13924A6C12920C22579215
:10147000339D2B9A1D9E55403D9A369F5540259A87
:101480002C9C5540139A359B55401A9A6340564000
:10149000409A3F9C5640219A63405640229A5640BB
:1014A0001F220796D6416E400F961B9E2A9A289CB3
:1014B0005640389A63405640269A179C5640129AD6
:1014C000634056402D9A1F245740419A5740299A0D
:1014D0005740189A57403246E6415E40B446309E27
:1014E000349C069774403A9E7A407440209E744023
:1014F000169E744026466C400C94119F2E9C6740AB
:10150000429C67403C9C1F256740249C67403446B2
:10151000EC410497109E319D7C406E403B9D069FA0
:101520006E40379D6E40239D6E40B6465E400A96E3
:101530001C9D199B1F265D40399B5D401F9B5D4094
:10154000149B5D402B46F3417B4009932F9E329BB9
:101550001F2773403E9E7340279E7340159E734025
:10156000079E5E4008967646FE41049F73407D408C
:1015700007950F9E119D0A2775402D9EAE46664029
:10158000FE4104963A9E089D6E40FE4103961F9EC2
:101590000C9D15277540FD41139F02955F4019264C
:1015A000F7411E9D01972E1D2F681E96039E049DD8
:1015B000AE4375466E4077402D97029F039EB7431A
:1015C000049E77404697019F029EB743039E774053
:1015D0004497019F029EBD4375404395049E754606
:1015E000AE437E404896329F664677401225EF41D3
:1015F0002B9D16265D40F54104953B9D1E265540CA
:10160000F54103950A9E219DBE4675400926F54188
:101610000295169E089D6E400125EE410196039E9F
:10162000049DAE437E403B96029E039DAE43049DC7
:101630006E401196019E029DAE43039D6E403A9608
:10164000019E029DB7436F404797049D7746BD4377
:1016500075401D9F0A9E219577401F25EF410597F4
:101660002C9F099D1D266F40F7410C9E399D0497C4
:1016700075401326F5410395259D1C265D40F541D7
:10168000249F0F9E029577401725EF41BE46049F89
:10169000039D7646BD43059F7D405295039F029D65
:1016A000BD43049F7D404C95029DAE43039D6E401B
:1016B0005096059F7646029DB7436F405197059F10
:1016C000049DBD4377467D4056951B9E079D2E9FEA
:1016D0006E401225EE4105960F9E0E257740EF4194
:1016E000419E049766401B27FE410396209F089E5B
:1016F000159D77401826F7416646754004260297E7
:10170000F54107E0222222220C0C0C0CF000F00024
:10171000A0720000AE46049F039D059EBD43754028
:101720005595039E029DB5437D404F95029F75469A
:10173000BD4375405495059E7546AE437E404D961B
:10174000049F059EB7436F404197359F099D6F40A9
:101750000125EF410597199E0C9D389F6E40042589
:10176000EE41079DB6467D400C26F5410395379D19
:101770000B275540FD410295189D1F276540FD41EF
:101780000195039D7646B5432E46059F039D7E40F9
:10179000029F3796AF43764677403997019F029D67
:1017A000AF43039D6F404B97059F019DAF43029D43
:1017B0006F403897059F019DBE436E40109D259652
:1017C000554005950A9E1A9D3F9F75400A26F54192
:1017D0000495099D66466F400B25EF41279D0397B1
:1017E00075401626F5410295129E079D6E401925FB
:1017F000EE41049D0196AF43059D6F401E9D40CD77
:101800001E957E401096029E039DAE43049D6E4041
:101810001296019E029DAE43039D6E404596019E29
:10182000059DB543029E75401A95059E049DB543DE
:10183000019E754015951C9E0C9D6E401225EE4133
:101840002A9F079D05966F401625EF41429E0F9DEA
:1018500004976E401F25EE410396299D0A26654098
:10186000F541179F099EAE4677403D460226F54159
:101870000195049F039D059EBD4375402095039EE1
:101880007546B5437D401695019D7746BD432F466D
:1018900077401F97019F059E7546BE436E40139685
:1018A000049F059E019DB7436F401997369F309E58
:1018B0006740089C654666401D24E6413E9CBE4646
:1018C0006C401425EC410394269D079C65401C2424
:1018D000E541239C029554401725EC410194039C5B
:1018E000029DB4437C401C94039CA54375404E95D7
:1018F000029D019CAC43039D6C401B94019C029D86
:10190000A7436F4023977746BE4366402696339E93
:1019100013245E40319FE64157400E220596D74181
:10192000409C0A9A289D54401B22D441099A039452
:1019300055401922D5410C9C149AAE4662400424AD
:10194000E2411446039ABA4372402492039AA64392
:1019500095437D40189522467546AA43039D6A40EB
:1019600075466E401796059E1D92B743674049978E
:10197000349E089A644656400122D6412F9A0F9D04
:1019800062400524E2413D9C37465C400D23DC412A
:101990003C9B0A9E6B400C25EB41229D75401F2607
:1019A000F541264696437E4040961E46A643564045
:1019B00053962E469E4374403E46AE435E40BA4325
:1019C0006A404A962292489B219A14945340569A10
:1019D000169D5340419A129C5340259A6C404E9D4F
:1019E000534004936C40189D539E6C407440A6462F
:1019F0001F22D4415C400F94199F159D269E7D4067
:101A00007540499F229A7D405540469B119A2E462B
:101A100053404C9A1B9C53404F9A5340399A534021
:101A20005D400693449B3A9A1F9F5340509A5340FF
:101A3000549A53404B9A53401F22D6415E400D9614
:101A4000459E1D9A7E406640149C564066409C46CA
:101A50003746049B32465F402D9E3B9B1C9C5E405C
:101A6000529B5E40559B5E40379B5E401F23DA4190
:101A700072400496109E209B5E406640249C634604
:101A80006640409C664002965E40B446139E1A9C97
:101A9000239B7440179E634073404A9E479C73404B
:101AA0001E4603931F23DE41069B7340439E664000
:101AB000519C66404D9C6640389C6640744674401C
:101AC00001960894029E1F24E641019C66400696FA
:101AD000049E039C744007942D9E0F9C6640119CAD
:101AE000B64654400A26F4410494089E1B9C744058
:101AF0000A26F4410394179C7C4026461524E641AF
:101B00000296069E259C74401926F4410194049E79
:101B1000039CB4437646744011941E9C40CC1E94A2
:101B2000119C74401194029E039CA643049C744033
:101B30003694019E029CA643039C74403594019EFA
:101B40007446B443029E74403294049C7646B44377
:101B5000019E744033940D9E439C74401226F441C0
:101B60000594219E069C66401624E6411C9C049622
:101B70006C401E26F4410394189C66467440092666
:101B8000F4410294149E089C66400124E641B64646
:101B9000049E039CB443059E74402E94039E029CB5
:101BA000B443049E74402D94029C7646A643039C45
:101BB00074402C94059C7646B443029E74402F9446
:101BC000059E049CB443764674402B94129C664652
:101BD00074401F26F4413A9E05945E401D24E64160
:101BE0000496239E13247E40E6410396419E069C64
:101BF00066401C24E64102960F9E379C74401726CF
:101C0000F441A646039E049CA643059C664042966A
:101C1000039E029CB443049E74404194029C764609
:101C2000A643039C66403F96059C7646B443029EBD
:101C300074403E94059E049CB443764674403D94A3
:101C4000159E079C66401224E64105960F9E3B9C1C
:101C500074400E26F4414C9E049456401B24E641E9
:101C60000396089E1D9C74401826F441A646389E93
:101C70000D9C66400424E6410196049E039CB443F7
:101C8000059E74403C94039E7446B443049E744085
:101C90002994019E7446A643039C66402896019EA3
:101CA000059CB443764674402794059E049CB44337
:101CB000019E7440449E25945E400124E6410596B1
:101CC000139E04247E40E6410496269E079C6640AF
:101CD0000C24E6410396249E0B246E40E6410296B6
:101CE000399C1F265440F441A646049E039CB443ED
:101CF000059E74402494039E029CB443049E744049
:101D00001894029E7446B443039E74401794059C35
:101D10007646B443029E74401594049E059CA643E7
:101D200074466640109C13966C40A646169E644608
:101D300074400A26F441509E04945E4034460B26BB
:101D4000F44103944D9E0D9C74401626F441029478
:101D5000229E079C66401924E6410196039E049C3E
:101D6000A6437446664010961E9E10CE1E96109E88
:101D700066401096039E029CB443049E66401D96E6
:101D8000019E029CA643039C66403496019E7446C5
:101D9000B443029E66401C96049E7446A643019C72
:101DA00066401B961A9E12247E40E6410596199EB7
:101DB000079C66401624E6410496529E0F9C66409E
:101DC0001F24E6414F9C039654400A26F441029496
:101DD0004B9C02265C40F441A646049E039CB443FF
:101DE000059E74403194039E029CB443049E74404B
:101DF0001A94029C7646A643039C66403096059C46
:101E00007646B443029E74401994049E059CA643F2
:101E1000744666402A96469E5640B6461F9E089CCB
:101E2000664032461D24E2410D9E519C049274404E
:101E30001426F4410394499E079C66401C24E64105
:101E40000296409E17246E403246E241049E039C57
:101E50000192B443764674403B94029E039CA64391
:101E6000049C66404096029E039CB24362403A92B4
:101E7000019C7246A2437240049C39927646B44358
:101E8000019A209E54403894069C489A6E406240C5
:101E90001324E24105920E22D6414E9D62465540E2
:101EA000549C1B22D5415C401922D4414A9BA64632
:101EB0007B400422D3412C46059AB44354403794C6
:101EC0007446AC437440219474461A46A2436A4057
:101ED0002092059A67469A4362401F92059A069D92
:101EE00096435E402696089B459A0D9C5A400123D6
:101EF000DA41479B0F9E63400524E341569C6C40AA
:101F00000D25EC41559D75400C26F541539E7E40B4
:101F10001F27FE4127469F43574023972F46A7433D
:101F20005F4022973746AF43674014469343B4431C
:101F300016976C407340579A1494521E12935792FE
:101F400001D0FFF795FA119A0260109A4260369A12
:101F500082601D9AC260359A0261349A4261329A57
:101F600082611C9AC261339A02621B9A42622E9A63
:101F70008262319AC2622D9A02631A9A42632C9A43
:101F80008263309AC2632F9A0264199A42642B9A30
:101F900082642A9AC264429A02653B9A4265419AD7
:101FA0008265409AC2653F9A02663A9A42663E9AB4
:101FB0008266399AC2663D9A0267389A42673C9AAD
:101FC0008267379AC26729980860219848602898E4
:101FD00088602098C860279808611F9848612598F4
:101FE00088612698C86124980862239848621898E6
:101FF00088622298C86217980863169848631598F3
:1020000088631498C863139808641298486458B099
:10201000F0BD0000F0B5D8B004460F250A68FF4EA9
:102020005308534033405A405B005A409308FC4FDA
:1020300053403B405A409B005A401309F94F5340CC
:102040003B405A401B015A40130AFF2753403F02AE
:102050003B405A401B025A404B6808315F085F40C2
:1020600037407B407E0073409E08ED4F5E403E400F
:102070007340B60073401E09EA4F5E403E40734015
:10208000360173401E0AFF275E403F023E40734008
:10209000360273401F0496B23E4327681B0C7E40F5
:1020A000120C1B041A43266063685A4062600834AD
:1020B0006D1EB3D5DC491E910168119141681091E4
:1020C00081683691C1681D910169359141693491EA
:1020D00081693291C1691C91016A3391416A1B91F6
:1020E000816A2E91C16A3191016B2D91416B1A91D8
:1020F000816B2C91C16B3091016C2F91416C1991C6
:10210000816C2B91C16C2A91016D4291416D3B9183
:10211000816D4191C16D4091016E3F91416E3A9147
:10212000816E3E91C16E3991016F3D91416F389141
:10213000816F3C91C16F3791014680310A682992C5
:102140004A6821928A682892CA6820920A6927926E
:102150004A691F928A692592CA6926920A6A24925C
:102160004A6A23928A6A1892CA6A22920A6B179262
:102170004A6B16928A6B1592CA6B14920A6C139270
:102180004A6C12920C225792339F2B9A1D9D5740F6
:102190003D9A2C9C5740259A5740139A57401A9ABB
:1021A0005540409A5540219A5540229A55400795EE
:1021B0001F22D5411B9B2A9A2E465340389A7E40B7
:1021C00053400F96269A369D5340129A359E53409F
:1021D0002D9A66405540419A3F9C55406640299A49
:1021E000289C55406640189A179C554066401A46F0
:1021F0001F24E34173409C46349C309BAE465C40B8
:102200003A9B6A405C40209B119D5C40169B5C4061
:1022100023467B402E9F7D40429F7D403C9F7D40DA
:10222000249F7D4004951F25EC41049D109F6C4028
:10223000319D6F403B9D6F40379D6F40239D6F40A8
:10224000029777400A971C9E199D329F6E40399DD8
:102250006E401F9D6E40149D6E401F250396EE41FB
:1022600075466E402F9D09966F403E9D1F266F401C
:10227000279D6F40159D6F40079D7D400895029DED
:10228000F5412E467E400696039E049D0A276E4029
:1022900007960F9E119D75402D9EAE466640FE41ED
:1022A00004963A9E089D6E40FE411F9F03965F4034
:1022B00015263D46F5410295139F069D19266F4050
:1022C000F7411E9D01972E1D2F681E96039E049DAB
:1022D000AE4375466E4077402D97029F039EB743ED
:1022E000049E77404697019F029EB743039E774026
:1022F0004497019F029EBD4375404395049E7546D9
:10230000AE437E40329F65466F401225EF414896AE
:1023100005972B9F069E092577401626F7410497BF
:102320003B9F1E265740F74103970A9F219E7E4000
:10233000EE410296169F089D6F400125EF41BE4673
:10234000039D049F2E46BE43059F7E403B96029E02
:10235000049FAE437E401196029E7546039FB5438F
:102360007D403A95059F7546AF4377404797059F57
:10237000049E1D9DBE4377467E400A9F21967D4068
:102380001F27FD410595099E2C9D132775401D268D
:10239000F5410495399D069E5D40FD41259F0395BD
:1023A00077401C25EF41249E0F9DBE466E401725A9
:1023B000EE410196039E049DAE43059D6E40039D34
:1023C0005296AF43049D6F404C97019E7746039D04
:1023D000BE436E405096019E059DB5437D4051958C
:1023E000059E049D1B9FB543019E7540079E569513
:1023F00077401225EF4105972E9F0F9E77400E26BE
:10240000F7410497419F1B266740F7410397209EA1
:10241000089D6E401825EE41029607E022222222F6
:102420000C0C0C0CF000F000A0720000159D66462C
:1024300075400426F541AE463D46049F2E46BE43F8
:10244000059F7E405596029E049FAE437E404F9668
:10245000029E7546039FB5437D405495059F754682
:10246000AF4377404D97059F049EBE436E40419613
:10247000359F099E01257740EF410597199F042656
:102480005F40F7410497389F079E0B2577400C2645
:10249000F741379E03975640EE41189D02966540DE
:1024A0001F26F541AE463D46049F2E46BE43059F7E
:1024B0007E403796029E049FAE437E403996029E30
:1024C0007546039FB5437D404B95059F7546AF43C9
:1024D00077403897059F049EBE436E40109D259619
:1024E000554005950A9F1A9D0A267D40F5410495A1
:1024F0003F9F099E0B257740EF41279D664675401B
:102500001626F54102950397079E129D75401926E0
:10251000F5410195049DAF43059D6F401E9D40CD43
:102520001E957E401096029E039DAE43049D6E4014
:102530001296019E029DAE43039D6E404596019EFC
:10254000059DB543029E75401A95049E059DAE43B8
:10255000019D6E4015961C9E12255E40EE412A9FFD
:10256000079D05966F401625EF41429E0F9D0497EB
:102570006E401F25EE410396299F0A266740F741CA
:10258000099E179D029775400226F541AE46049FAD
:10259000039D059EBD4375402095039E029DB54356
:1025A0007D401695029F7546BD432F4677401F9785
:1025B000059E7546029FAE437E401396049F059E7E
:1025C000B743369E6F406640309D089CB6466540D6
:1025D0001D24E5413E9E644666401424E641199759
:1025E0000396269F079C049567401C24E741239C83
:1025F000172554400297EC413746049D7646AF4379
:1026000077401C97029F039EB7436F404E97029FEF
:102610002546BD432F4677401B977646029FA6432B
:102620007E402396049F7646B7436740339E069CC0
:10263000269766401324E641319F059657400E22A7
:10264000D741409C0A9A149D54401B22D441A6466F
:10265000099C289A5D4062401924E2417446BC43BB
:1026600004237440DD41249474461346A3431C465E
:102670007C402B461894934374465C40AE435640CE
:1026800017961D94059E3D9CB7436F404997349E15
:10269000089A2F9F56400122D64162465740052294
:1026A000D741069A0F9B54400D22D4413C9A35469F
:1026B0005A400C23DA410A9E229B73401F26F341A5
:1026C0002646BE436E4040961646A6437E4053962D
:1026D0001E46964374402E469E43AF4356405F408D
:1026E000219B489A14945A40569B22975A40419BEA
:1026F000169D5A40259B4E9F5A40129B4A966B400E
:102700007B40189C539E634073401F240793E34112
:102710001E465640B446199F159E119D469C7E400C
:102720006C404C9D269F6C407E404F9D499F334698
:102730006C407B40399D229F6C407B401D4665402C
:1027400006943A9E449C7440509E7440549E74403B
:102750004B9E744001941F24E3411F9F459E019CA2
:102760007E4063401B9F1D9C7E406640149C6640DB
:10277000374657402D9C3B9A5440529A5440559AA4
:102780005440379A54401F22D6413246A6466240F2
:10279000109E209C66401C9C6640249C6640409C89
:1027A0006640019C029666400A96139E1A9C7440ED
:1027B000239E7440179E74404A9E66401F240396D1
:1027C000E641069C66400996439E479C6640519CA4
:1027D00066404D9C6640389C66400196079E019C71
:1027E00066400896029E1F24E641019C66400696BC
:1027F000039E7446664007962D9C66467440A64626
:10280000119C0A265440F4410494089E1B9C744079
:102810000A26F4410394179E15247E40E641029651
:10282000069E259C74401926F4410194049E039C45
:10283000B443764674401E9E119410CE1E96119E8F
:1028400074401194029E039CA643049C66403696F5
:10285000029E019CB443039E74403594019E7446CD
:10286000B443029E74403294049E7446A643019C75
:1028700066403396439E12245E40E6410596219EB3
:10288000069C66401624E64104961C9E1E246E405B
:10289000E6410396189E0A9C66400924E64102968A
:1028A000089E149C74400126F441A646039E049C95
:1028B000A643059C66402E96039E029CB443049E4C
:1028C00074402D94029E7446B443039E74402C942D
:1028D000059C7646B443029E74402F94059E049C4A
:1028E000B443764674402B94129E0A9C66401F2483
:1028F000E64105963A9E099C66401D24E6410496F1
:10290000239E13247E40E6410396419E069C66402A
:102910001C24E6410296379C664674401726F44113
:10292000A646039E049CA643059C66404296039ED1
:10293000029CB443049E74404194029C7646A64394
:10294000039C66403F96059C7646B443029E7440C5
:102950003E94059E049CB443764674403D94079E85
:10296000159C74401226F44105943B9E64466640D3
:102970000E24E64104964C9E1B245640E6410396E5
:10298000089E1D9C74401826F4410294389C04262D
:102990005C40F441A646049E039CB443059E7440EB
:1029A0003C94039E029CB443049E74402994029C70
:1029B0007646A643039C66402896059C7646B4431B
:1029C000029E74402794049E059CA643744666406C
:1029D0002596449E099C66400124E641139C059679
:1029E0007C400426F4410494269E079C66400C24F7
:1029F000E641249C03966C400B26F441A646399C84
:102A00001F265440F4410194039E049CA643059C58
:102A100066402496039E7446B443049E7440189402
:102A2000019C7646B443039E74401794019E059C16
:102A3000B443764674401594059E049CB443019EAD
:102A400074401394109C0A9E6C40A646169C7440D9
:102A50000A26F4410494099E509C74400B26F441CC
:102A60004D9E03945E401624E6410296079E229CEA
:102A700074401926F4410194039E049CA6437446B5
:102A8000664010961E9C1E9E2468361D1E96109E43
:102A900074401094029E039CA643049C66401D96BD
:102AA000029E019CB443039E74403494019E74467C
:102AB000B443029E74401C94049C7646B443019E29
:102AC00074401A9E1B947E401224E6410596199E7E
:102AD000079C66401624E6410496529E6446664072
:102AE0001F24E64103964F9E0A245640E641029673
:102AF000099E4B9C74400226F441A646049E039C0A
:102B0000B443059E74403194039E029CB443049EDA
:102B100074401A94029E7446B443039E74403094E9
:102B2000059E7446A643029C66401996059E049C29
:102B3000B44376467440469E2A945640B6461F9E3D
:102B4000089C66401D243246E241519C14265C409C
:102B5000F4410394499E079C049266401C24E6417C
:102B60000296409E17246E403246E241049E039C2A
:102B70000192B443764674403B94029E039CA64364
:102B8000049C66404096029E039CB24362403A9287
:102B9000019C7246A24372403992049C7646019A87
:102BA000B44354403894069C489A62401324E2414E
:102BB000209C05926C400E22D4414E9D0A9A0494AA
:102BC00055401B22D541549E099A0424564019228F
:102BD000D6414A9A7A40E2419646049C2F46059A8D
:102BE000A74357403246AA43624021927246B243FD
:102BF00037976A402092059C7246944374401F9414
:102C0000049C059A069D9443724654402694089C61
:102C1000459A664662400124E241479C0A9F5C4017
:102C20000523DC41569B6B400D25EB41559D7540BE
:102C30000C26F541539E7E401F27FE411F46A743A9
:102C4000574023972F469F43674022973746AF430D
:102C50005F401346B3436B409443744016971294FD
:102C6000579A1493521E579201D0FFF78DFA119A7A
:102C70000260109A4260369A82601D9AC260359A4C
:102C80000261349A4261329A82611C9AC261339A1B
:102C900002621B9A42622E9A8262319AC2622D9A15
:102CA00002631A9A42632C9A8263309AC2632F9A03
:102CB0000264199A42642B9A82642A9AC264429AE4
:102CC00002653B9A4265419A8265409AC2653F9A85
:102CD00002663A9A42663E9A8266399AC2663D9A7E
:102CE0000267389A42673C9A8267379AC267299886
:102CF000086021984860289888602098C8602798C4
:102D000008611F984861259888612698C8612498B1
:102D1000086223984862189888622298C8621798B7
:102D2000086316984863159888631498C8631398C5
:102D300008641298486458B0F0BD0000F0B5D8B0EF
:102D4000044610250A68FF4E5308534033405A404A
:102D50005B005A409308FC4F53403B405A409B0055
:102D60005A401309F94F53403B405A401B015A4007
:102D7000130AFF2753403F023B405A401B025A4070
:102D80004B6808315F085F4037407B407E007340EE
:102D90009E08ED4F5E403E407340B60073401E09F2
:102DA000EA4F5E403E407340360173401E0AFF27E3
:102DB0005E403F023E407340360273401F0496B2AD
:102DC0003E4327681B0C7E40120C1B041A432660EE
:102DD00063685A40626008346D1EB3D5DC491E91A9
:102DE000016811914168109181683691C1681D9107
:102DF000016935914169349181693291C1691C91B0
:102E0000016A3391416A1B91816A2E91C16A3191A5
:102E1000016B2D91416B1A91816B2C91C16B30919B
:102E2000016C2F91416C1991816C2B91C16C2A918D
:102E3000016D4291416D3B91816D4191C16D409118
:102E4000016E3F91416E3A91816E3E91C16E399112
:102E5000016F3D91416F3891816F3C91C16F379106
:102E6000014680310A6829924A6821928A6828922C
:102E7000CA6820920A6927924A691F928A69259234
:102E8000CA6926920A6A24924A6A23928A6A189226
:102E9000CA6A22920A6B17924A6B16928A6B159233
:102EA000CA6B14920A6C13924A6C12920C225792BB
:102EB000339F2B9A1D9D57403D9A2C9C5740259A35
:102EC0005740139A57401A9A5540409A5540219AB4
:102ED0005540229A554007951F22D5411B9B2A9A9F
:102EE0002E465340389A7E4053400F96269A369D80
:102EF0005340129A359E53402D9A66405540419A50
:102F00003F9C55406640299A289C55406640189A37
:102F1000179C554066401A461F24E34173409C4667
:102F2000349C309BAE465C403A9B6A405C40209BA0
:102F3000119D5C40169B5C4023467B402E9F7D404C
:102F4000429F7D403C9F7D40249F7D4004951F25EE
:102F5000EC41049D109F6C40319D6F403B9D6F4044
:102F6000379D6F40239D6F40029777400A971C9EC4
:102F7000199D329F6E40399D6E401F9D6E40149D7D
:102F80006E401F250396EE4175466E402F9D0996B3
:102F90006F403E9D1F266F40279D6F40159D6F40DF
:102FA000079D7D400895029DF5412E467E40069680
:102FB000039E049D0A276E4007960F9E119D754043
:102FC0002D9EAE466640FE4104963A9E089D6E4098
:102FD000FE411F9F03965F4015263D46F541029531
:102FE000139F069D19266F40F7411E9D01972E1DC8
:102FF0002F681E96039E049DAE4375466E40774033
:103000002D97029F039EB743049E77404697019FEA
:10301000029EB743039E77404497019F029EBD43A3
:1030200075404395049E7546AE437E40329F65468B
:103030006F401225EF41489605972B9F069E092564
:1030400077401626F74104973B9F1E265740F741CD
:1030500003970A9F219E7E40EE410296169F089D8F
:103060006F400125EF41BE46039D049F2E46BE439F
:10307000059F7E403B96029E049FAE437E40119684
:10308000029E7546039FB5437D403A95059F754660
:10309000AF4377404797059F049E1D9DBE437746EB
:1030A0007E400A9F21967D401F27FD410595099E80
:1030B0002C9D132775401D26F5410495399D069ECC
:1030C0005D40FD41259F039577401C25EF41249EDF
:1030D0000F9DBE466E401725EE410196039E049D4E
:1030E000AE43059D6E40039D5296AF43049D6F40D5
:1030F0004C97019E7746039DBE436E405096019EBD
:10310000059DB5437D405195059E049D1B9FB5438C
:10311000019E7540079E569577401225EF41059711
:103120002E9F0F9E77400E26F7410497419F1B2646
:103130006740F7410397209E089D6E401825EE4199
:10314000029607E0222222220C0C0C0CF000F00068
:10315000A0720000159D664675400426F541AE46F6
:103160003D46049F2E46BE43059F7E405596029ED7
:10317000049FAE437E404F96029E7546039FB54323
:103180007D405495059F7546AF4377404D97059F09
:10319000049EBE436E404196359F099E01257740AF
:1031A000EF410597199F04265F40F7410497389F28
:1031B000079E0B2577400C26F741379E0397564014
:1031C000EE41189D029665401F26F541AE463D46EC
:1031D000049F2E46BE43059F7E403796029E049F65
:1031E000AE437E403996029E7546039FB5437D40AF
:1031F0004B95059F7546AF4377403897059F049ED2
:10320000BE436E40109D2596554005950A9F1A9D18
:103210000A267D40F54104953F9F099E0B25774086
:10322000EF41279D664675401626F54102950397A6
:10323000079E129D75401926F5410195049DAF43E7
:10324000059D6F401E9D40CD1E957E401096029EAE
:10325000039DAE43049D6E401296019E029DAE43B7
:10326000039D6E404596019E059DB543029E7540A7
:103270001A95049E059DAE43019D6E4015961C9EB9
:1032800012255E40EE412A9F079D05966F40162548
:10329000EF41429E0F9D04976E401F25EE4103961D
:1032A000299F0A266740F741099E179D029775409E
:1032B0000226F541AE46049F039D059EBD43754021
:1032C0002095039E029DB5437D401695029F75464D
:1032D000BD432F4677401F97059E7546029FAE431C
:1032E0007E401396049F059EB743369E6F4066400E
:1032F000309D089CB64665401D24E5413E9E6446CF
:1033000066401424E64119970396269F079C04956E
:1033100067401C24E741239C172554400297EC4149
:103320003746049D7646AF4377401C97029F039E25
:10333000B7436F404E97029F2546BD432F467740C7
:103340001B977646029FA6437E402396049F7646AF
:10335000B7436740339E069C269766401324E64198
:10336000319F059657400E22D741409C0A9A149DE2
:1033700054401B22D441A646099C289A5D406240D5
:103380001924E2417446BC4304237440DD41249473
:1033900074461346A3431C467C402B461894934323
:1033A00074465C40AE43564017961D94059E3D9C66
:1033B000B7436F404997349E089A2F9F5640012289
:1033C000D641624657400522D741069A0F9B54408A
:1033D0000D22D4413C9A35465A400C23DA410A9ECC
:1033E000229B73401F26F3412646BE436E40409603
:1033F0001646A6437E4053961E46964374402E467C
:103400009E43AF4356405F40219B489A14945A40D4
:10341000569B22975A40419B169D5A40259B4E9F92
:103420005A40129B4A966B407B40189C539E6340C7
:1034300073401F240793E3411E465640B446199F2C
:10344000159E119D469C7E406C404C9D269F6C4075
:103450007E404F9D499F33466C407B40399D229F63
:103460006C407B401D46654006943A9E449C7440E7
:10347000509E7440549E74404B9E744001941F248F
:10348000E3411F9F459E019C7E4063401B9F1D9C06
:103490007E406640149C6640374657402D9C3B9AC0
:1034A0005440529A5440559A5440379A54401F22DF
:1034B000D6413246A6466240109E209C66401C9C27
:1034C0006640249C6640409C6640019C0296664093
:1034D0000A96139E1A9C7440239E7440179E744053
:1034E0004A9E66401F240396E641069C6640099664
:1034F000439E479C6640519C66404D9C6640389C6C
:1035000066400196079E019C66400896029E1F2415
:10351000E641019C66400696039E74466640079607
:103520002D9C66467440A646119C0A265440F441E0
:103530000494089E1B9C74400A26F4410394179E31
:1035400015247E40E6410296069E259C744019266D
:10355000F4410194049E039CB443764674401E9E3D
:10356000119410CE1E96119E74401194029E039CDD
:10357000A643049C66403696029E019CB443039E7B
:1035800074403594019E7446B443029E7440329454
:10359000049E7446A643019C66403396439E1224C3
:1035A0005E40E6410596219E069C66401624E64153
:1035B00004961C9E1E246E40E6410396189E0A9CAB
:1035C00066400924E6410296089E149C7440012638
:1035D000F441A646039E049CA643059C66402E9695
:1035E000039E029CB443049E74402D94029E744634
:1035F000B443039E74402C94059C7646B443029ECB
:1036000074402F94059E049CB443764674402B94DA
:10361000129E0A9C66401F24E64105963A9E099C2C
:1036200066401D24E6410496239E13247E40E64115
:103630000396419E069C66401C24E6410296379CF8
:10364000664674401726F441A646039E049CA64392
:10365000059C66404296039E029CB443049E7440BF
:103660004194029C7646A643039C66403F96059C87
:103670007646B443029E74403E94059E049CB44337
:10368000764674403D94079E159C74401226F44182
:1036900005943B9E644666400E24E64104964C9E8B
:1036A0001B245640E6410396089E1D9C7440182634
:1036B000F4410294389C04265C40F441A646049EE2
:1036C000039CB443059E74403C94039E029CB44307
:1036D000049E74402994029C7646A643039C66404F
:1036E0002896059C7646B443029E74402794049E17
:1036F000059CA643744666402596449E099C6640F8
:103700000124E641139C05967C400426F441049470
:10371000269E079C66400C24E641249C03966C4040
:103720000B26F441A646399C1F265440F4410194CF
:10373000039E049CA643059C66402496039E744603
:10374000B443049E74401894019C7646B443039E8F
:1037500074401794019E059CB443764674401594BA
:10376000059E049CB443019E74401394109C0A9ED1
:103770006C40A646169C74400A26F4410494099EA7
:10378000509C74400B26F4414D9E03945E401624D9
:10379000E6410296079E229C74401926F44101944A
:1037A000039E049CA6437446664010961E9C1E9E73
:1037B0002468361D1E96109E74401094029E039C31
:1037C000A643049C66401D96029E019CB443039E42
:1037D00074403494019E7446B443029E74401C9419
:1037E000049C7646B443019E74401A9E1B947E400E
:1037F0001224E6410596199E079C66401624E64170
:103800000496529E644666401F24E64103964F9EEE
:103810000A245640E6410296099E4B9C74400226BB
:10382000F441A646049E039CB443059E7440319423
:10383000039E029CB443049E74401A94029E7446F4
:10384000B443039E74403094059E7446A643029C84
:1038500066401996059E049CB44376467440469E85
:103860002A945640B6461F9E089C66401D24324648
:10387000E241519C14265C40F4410394499E079C0C
:10388000049266401C24E6410296409E17246E4036
:103890003246E241049E039C0192B4437646744052
:1038A0003B94029E039CA643049C66404096029E65
:1038B000039CB24362403A92019C7246A24372401A
:1038C0003992049C7646019AB44354403894069C3D
:1038D000489A62401324E241209C05926C400E22DB
:1038E000D4414E9D0A9A049455401B22D541549EC2
:1038F000099A042456401922D6414A9A7A40E24154
:103900009646049C2F46059AA74357403246AA4341
:10391000624021927246B24337976A402092059CDA
:103920007246944374401F94049C059A069D9443E8
:10393000724654402694089C459A6646624001248B
:10394000E241479C0A9F5C400523DC41569B6B404B
:103950000D25EB41559D75400C26F541539E7E404B
:103960001F27FE411F46A743574023972F469F43DB
:10397000674022973746AF435F401346B3436B40DF
:103980009443744016971294579A1493521E579268
:1039900001D0FFF78DFA119A0260109A4260369AB0
:1039A00082601D9AC260359A0261349A4261329AED
:1039B00082611C9AC261339A02621B9A42622E9AF9
:1039C0008262319AC2622D9A02631A9A42632C9AD9
:1039D0008263309AC2632F9A0264199A42642B9AC6
:1039E00082642A9AC264429A02653B9A4265419A6D
:1039F0008265409AC2653F9A02663A9A42663E9A4A
:103A00008266399AC2663D9A0267389A42673C9A42
:103A10008267379AC2672998086021984860289879
:103A200088602098C860279808611F984861259889
:103A300088612698C861249808622398486218987B
:103A400088622298C8621798086316984863159888
:103A500088631498C863139808641298486458B02F
:103A6000F0BD0000F0B5D8B0044611250A68FF4E3D
:103A70005308534033405A405B005A409308FC4F70
:103A800053403B405A409B005A401309F94F534062
:103A90003B405A401B015A40130AFF2753403F0244
:103AA0003B405A401B025A404B6808315F085F4058
:103AB00037407B407E0073409E08ED4F5E403E40A5
:103AC0007340B60073401E09EA4F5E403E407340AB
:103AD000360173401E0AFF275E403F023E4073409E
:103AE000360273401F0496B23E4327681B0C7E408B
:103AF000120C1B041A43266063685A406260083443
:103B00006D1EB3D5DC491E91016811914168109179
:103B100081683691C1681D9101693591416934917F
:103B200081693291C1691C91016A3391416A1B918B
:103B3000816A2E91C16A3191016B2D91416B1A916D
:103B4000816B2C91C16B3091016C2F91416C19915B
:103B5000816C2B91C16C2A91016D4291416D3B9119
:103B6000816D4191C16D4091016E3F91416E3A91DD
:103B7000816E3E91C16E3991016F3D91416F3891D7
:103B8000816F3C91C16F3791014680310A6829925B
:103B90004A6821928A682892CA6820920A69279204
:103BA0004A691F928A692592CA6926920A6A2492F2
:103BB0004A6A23928A6A1892CA6A22920A6B1792F8
:103BC0004A6B16928A6B1592CA6B14920A6C139206
:103BD0004A6C12920C225792339F2B9A1D9D57408C
:103BE0003D9A2C9C5740259A5740139A57401A9A51
:103BF0005540409A5540219A5540229A5540079584
:103C00001F22D5411B9B2A9A2E465340389A7E404C
:103C100053400F96269A369D5340129A359E534034
:103C20002D9A66405540419A3F9C55406640299ADE
:103C3000289C55406640189A179C554066401A4685
:103C40001F24E34173409C46349C309BAE465C404D
:103C50003A9B6A405C40209B119D5C40169B5C40F7
:103C600023467B402E9F7D40429F7D403C9F7D4070
:103C7000249F7D4004951F25EC41049D109F6C40BE
:103C8000319D6F403B9D6F40379D6F40239D6F403E
:103C9000029777400A971C9E199D329F6E40399D6E
:103CA0006E401F9D6E40149D6E401F250396EE4191
:103CB00075466E402F9D09966F403E9D1F266F40B2
:103CC000279D6F40159D6F40079D7D400895029D83
:103CD000F5412E467E400696039E049D0A276E40BF
:103CE00007960F9E119D75402D9EAE466640FE4183
:103CF00004963A9E089D6E40FE411F9F03965F40CA
:103D000015263D46F5410295139F069D19266F40E5
:103D1000F7411E9D01972E1D2F681E96039E049D40
:103D2000AE4375466E4077402D97029F039EB74382
:103D3000049E77404697019F029EB743039E7740BB
:103D40004497019F029EBD4375404395049E75466E
:103D5000AE437E40329F65466F401225EF41489644
:103D600005972B9F069E092577401626F741049755
:103D70003B9F1E265740F74103970A9F219E7E4096
:103D8000EE410296169F089D6F400125EF41BE4609
:103D9000039D049F2E46BE43059F7E403B96029E98
:103DA000049FAE437E401196029E7546039FB54325
:103DB0007D403A95059F7546AF4377404797059FED
:103DC000049E1D9DBE4377467E400A9F21967D40FE
:103DD0001F27FD410595099E2C9D132775401D2623
:103DE000F5410495399D069E5D40FD41259F039553
:103DF00077401C25EF41249E0F9DBE466E4017253F
:103E0000EE410196039E049DAE43059D6E40039DC9
:103E10005296AF43049D6F404C97019E7746039D99
:103E2000BE436E405096019E059DB5437D40519521
:103E3000059E049D1B9FB543019E7540079E5695A8
:103E400077401225EF4105972E9F0F9E77400E2653
:103E5000F7410497419F1B266740F7410397209E37
:103E6000089D6E401825EE41029607E0222222228C
:103E70000C0C0C0CF000F000A0720000159D6646C2
:103E800075400426F541AE463D46049F2E46BE438E
:103E9000059F7E405596029E049FAE437E404F96FE
:103EA000029E7546039FB5437D405495059F754618
:103EB000AF4377404D97059F049EBE436E404196A9
:103EC000359F099E01257740EF410597199F0426EC
:103ED0005F40F7410497389F079E0B2577400C26DB
:103EE000F741379E03975640EE41189D0296654074
:103EF0001F26F541AE463D46049F2E46BE43059F14
:103F00007E403796029E049FAE437E403996029EC5
:103F10007546039FB5437D404B95059F7546AF435E
:103F200077403897059F049EBE436E40109D2596AE
:103F3000554005950A9F1A9D0A267D40F541049536
:103F40003F9F099E0B257740EF41279D66467540B0
:103F50001626F54102950397079E129D7540192676
:103F6000F5410195049DAF43059D6F401E9D40CDD9
:103F70001E957E401096029E039DAE43049D6E40AA
:103F80001296019E029DAE43039D6E404596019E92
:103F9000059DB543029E75401A95049E059DAE434E
:103FA000019D6E4015961C9E12255E40EE412A9F93
:103FB000079D05966F401625EF41429E0F9D049781
:103FC0006E401F25EE410396299F0A266740F74160
:103FD000099E179D029775400226F541AE46049F43
:103FE000039D059EBD4375402095039E029DB543EC
:103FF0007D401695029F7546BD432F4677401F971B
:10400000059E7546029FAE437E401396049F059E13
:10401000B743369E6F406640309D089CB64665406B
:104020001D24E5413E9E644666401424E6411997EE
:104030000396269F079C049567401C24E741239C18
:10404000172554400297EC413746049D7646AF430E
:1040500077401C97029F039EB7436F404E97029F85
:104060002546BD432F4677401B977646029FA643C1
:104070007E402396049F7646B7436740339E069C56
:10408000269766401324E641319F059657400E223D
:10409000D741409C0A9A149D54401B22D441A64605
:1040A000099C289A5D4062401924E2417446BC4351
:1040B00004237440DD41249474461346A3431C46F4
:1040C0007C402B461894934374465C40AE43564064
:1040D00017961D94059E3D9CB7436F404997349EAB
:1040E000089A2F9F56400122D6416246574005222A
:1040F000D741069A0F9B54400D22D4413C9A354635
:104100005A400C23DA410A9E229B73401F26F3413A
:104110002646BE436E4040961646A6437E405396C2
:104120001E46964374402E469E43AF4356405F4022
:10413000219B489A14945A40569B22975A40419B7F
:10414000169D5A40259B4E9F5A40129B4A966B40A3
:104150007B40189C539E634073401F240793E341A8
:104160001E465640B446199F159E119D469C7E40A2
:104170006C404C9D269F6C407E404F9D499F33462E
:104180006C407B40399D229F6C407B401D466540C2
:1041900006943A9E449C7440509E7440549E7440D1
:1041A0004B9E744001941F24E3411F9F459E019C38
:1041B0007E4063401B9F1D9C7E406640149C664071
:1041C000374657402D9C3B9A5440529A5440559A3A
:1041D0005440379A54401F22D6413246A646624088
:1041E000109E209C66401C9C6640249C6640409C1F
:1041F0006640019C029666400A96139E1A9C744083
:10420000239E7440179E74404A9E66401F24039666
:10421000E641069C66400996439E479C6640519C39
:1042200066404D9C6640389C66400196079E019C06
:1042300066400896029E1F24E641019C6640069651
:10424000039E7446664007962D9C66467440A646BB
:10425000119C0A265440F4410494089E1B9C74400F
:104260000A26F4410394179E15247E40E6410296E7
:10427000069E259C74401926F4410194049E039CDB
:10428000B443764674401E9E119410CE1E96119E25
:1042900074401194029E039CA643049C664036968B
:1042A000029E019CB443039E74403594019E744663
:1042B000B443029E74403294049E7446A643019C0B
:1042C00066403396439E12245E40E6410596219E49
:1042D000069C66401624E64104961C9E1E246E40F1
:1042E000E6410396189E0A9C66400924E641029620
:1042F000089E149C74400126F441A646039E049C2B
:10430000A643059C66402E96039E029CB443049EE1
:1043100074402D94029E7446B443039E74402C94C2
:10432000059C7646B443029E74402F94059E049CDF
:10433000B443764674402B94129E0A9C66401F2418
:10434000E64105963A9E099C66401D24E641049686
:10435000239E13247E40E6410396419E069C6640C0
:104360001C24E6410296379C664674401726F441A9
:10437000A646039E049CA643059C66404296039E67
:10438000029CB443049E74404194029C7646A6432A
:10439000039C66403F96059C7646B443029E74405B
:1043A0003E94059E049CB443764674403D94079E1B
:1043B000159C74401226F44105943B9E6446664069
:1043C0000E24E64104964C9E1B245640E64103967B
:1043D000089E1D9C74401826F4410294389C0426C3
:1043E0005C40F441A646049E039CB443059E744081
:1043F0003C94039E029CB443049E74402994029C06
:104400007646A643039C66402896059C7646B443B0
:10441000029E74402794049E059CA6437446664001
:104420002596449E099C66400124E641139C05960E
:104430007C400426F4410494269E079C66400C248C
:10444000E641249C03966C400B26F441A646399C19
:104450001F265440F4410194039E049CA643059CEE
:1044600066402496039E7446B443049E7440189498
:10447000019C7646B443039E74401794019E059CAC
:10448000B443764674401594059E049CB443019E43
:1044900074401394109C0A9E6C40A646169C74406F
:1044A0000A26F4410494099E509C74400B26F44162
:1044B0004D9E03945E401624E6410296079E229C80
:1044C00074401926F4410194039E049CA64374464B
:1044D000664010961E9C1E9E2468361D1E96109ED9
:1044E00074401094029E039CA643049C66401D9653
:1044F000029E019CB443039E74403494019E744612
:10450000B443029E74401C94049C7646B443019EBE
:1045100074401A9E1B947E401224E6410596199E13
:10452000079C66401624E6410496529E6446664007
:104530001F24E64103964F9E0A245640E641029608
:10454000099E4B9C74400226F441A646049E039C9F
:10455000B443059E74403194039E029CB443049E70
:1045600074401A94029E7446B443039E744030947F
:10457000059E7446A643029C66401996059E049CBF
:10458000B44376467440469E2A945640B6461F9ED3
:10459000089C66401D243246E241519C14265C4032
:1045A000F4410394499E079C049266401C24E64112
:1045B0000296409E17246E403246E241049E039CC0
:1045C0000192B443764674403B94029E039CA643FA
:1045D000049C66404096029E039CB24362403A921D
:1045E000019C7246A24372403992049C7646019A1D
:1045F000B44354403894069C489A62401324E241E4
:10460000209C05926C400E22D4414E9D0A9A04943F
:1046100055401B22D541549E099A04245640192224
:10462000D6414A9A7A40E2419646049C2F46059A22
:10463000A74357403246AA43624021927246B24392
:1046400037976A402092059C7246944374401F94A9
:10465000049C059A069D9443724654402694089CF7
:10466000459A664662400124E241479C0A9F5C40AD
:104670000523DC41569B6B400D25EB41559D754054
:104680000C26F541539E7E401F27FE411F46A7433F
:10469000574023972F469F43674022973746AF43A3
:1046A0005F401346B3436B40944374401697129493
:1046B000579A1493521E579201D0FFF78DFA119A10
:1046C0000260109A4260369A82601D9AC260359AE2
:1046D0000261349A4261329A82611C9AC261339AB1
:1046E00002621B9A42622E9A8262319AC2622D9AAB
:1046F00002631A9A42632C9A8263309AC2632F9A99
:104700000264199A42642B9A82642A9AC264429A79
:1047100002653B9A4265419A8265409AC2653F9A1A
:1047200002663A9A42663E9A8266399AC2663D9A13
:104730000267389A42673C9A8267379AC26729981B
:10474000086021984860289888602098C860279859
:1047500008611F984861259888612698C861249847
:10476000086223984862189888622298C86217984D
:10477000086316984863159888631498C86313985B
:1047800008641298486458B0F0BD0000F0B5D8B085
:10479000044614250A68FF4E5308534033405A40DC
:1047A0005B005A409308FC4F53403B405A409B00EB
:1047B0005A401309F94F53403B405A401B015A409D
:1047C000130AFF2753403F023B405A401B025A4006
:1047D0004B6808315F085F4037407B407E00734084
:1047E0009E08ED4F5E403E407340B60073401E0988
:1047F000EA4F5E403E407340360173401E0AFF2779
:104800005E403F023E407340360273401F0496B242
:104810003E4327681B0C7E40120C1B041A43266083
:1048200063685A40626008346D1EB3D5DC491E913E
:10483000016811914168109181683691C1681D919C
:10484000016935914169349181693291C1691C9145
:10485000016A3391416A1B91816A2E91C16A31913B
:10486000016B2D91416B1A91816B2C91C16B309131
:10487000016C2F91416C1991816C2B91C16C2A9123
:10488000016D4291416D3B91816D4191C16D4091AE
:10489000016E3F91416E3A91816E3E91C16E3991A8
:1048A000016F3D91416F3891816F3C91C16F37919C
:1048B000014680310A6829924A6821928A682892C2
:1048C000CA6820920A6927924A691F928A692592CA
:1048D000CA6926920A6A24924A6A23928A6A1892BC
:1048E000CA6A22920A6B17924A6B16928A6B1592C9
:1048F000CA6B14920A6C13924A6C12920C22579251
:10490000339F2B9A1D9D57403D9A2C9C5740259ACA
:104910005740139A57401A9A5540409A5540219A49
:104920005540229A554007951F22D5411B9B2A9A34
:104930002E465340389A7E4053400F96269A369D15
:104940005340129A359E53402D9A66405540419AE5
:104950003F9C55406640299A289C55406640189ACD
:10496000179C554066401A461F24E34173409C46FD
:10497000349C309BAE465C403A9B6A405C40209B36
:10498000119D5C40169B5C4023467B402E9F7D40E2
:10499000429F7D403C9F7D40249F7D4004951F2584
:1049A000EC41049D109F6C40319D6F403B9D6F40DA
:1049B000379D6F40239D6F40029777400A971C9E5A
:1049C000199D329F6E40399D6E401F9D6E40149D13
:1049D0006E401F250396EE4175466E402F9D099649
:1049E0006F403E9D1F266F40279D6F40159D6F4075
:1049F000079D7D400895029DF5412E467E40069616
:104A0000039E049D0A276E4007960F9E119D7540D8
:104A10002D9EAE466640FE4104963A9E089D6E402D
:104A2000FE411F9F03965F4015263D46F5410295C6
:104A3000139F069D19266F40F7411E9D01972E1D5D
:104A40002F681E96039E049DAE4375466E407740C8
:104A50002D97029F039EB743049E77404697019F80
:104A6000029EB743039E77404497019F029EBD4339
:104A700075404395049E7546AE437E40329F654621
:104A80006F401225EF41489605972B9F069E0925FA
:104A900077401626F74104973B9F1E265740F74163
:104AA00003970A9F219E7E40EE410296169F089D25
:104AB0006F400125EF41BE46039D049F2E46BE4335
:104AC000059F7E403B96029E049FAE437E4011961A
:104AD000029E7546039FB5437D403A95059F7546F6
:104AE000AF4377404797059F049E1D9DBE43774681
:104AF0007E400A9F21967D401F27FD410595099E16
:104B00002C9D132775401D26F5410495399D069E61
:104B10005D40FD41259F039577401C25EF41249E74
:104B20000F9DBE466E401725EE410196039E049DE3
:104B3000AE43059D6E40039D5296AF43049D6F406A
:104B40004C97019E7746039DBE436E405096019E52
:104B5000059DB5437D405195059E049D1B9FB54322
:104B6000019E7540079E569577401225EF410597A7
:104B70002E9F0F9E77400E26F7410497419F1B26DC
:104B80006740F7410397209E089D6E401825EE412F
:104B9000029607E0222222220C0C0C0CF000F000FE
:104BA000A0720000159D664675400426F541AE468C
:104BB0003D46049F2E46BE43059F7E405596029E6D
:104BC000049FAE437E404F96029E7546039FB543B9
:104BD0007D405495059F7546AF4377404D97059F9F
:104BE000049EBE436E404196359F099E0125774045
:104BF000EF410597199F04265F40F7410497389FBE
:104C0000079E0B2577400C26F741379E03975640A9
:104C1000EE41189D029665401F26F541AE463D4681
:104C2000049F2E46BE43059F7E403796029E049FFA
:104C3000AE437E403996029E7546039FB5437D4044
:104C40004B95059F7546AF4377403897059F049E67
:104C5000BE436E40109D2596554005950A9F1A9DAE
:104C60000A267D40F54104953F9F099E0B2577401C
:104C7000EF41279D664675401626F541029503973C
:104C8000079E129D75401926F5410195049DAF437D
:104C9000059D6F401E9D40CD1E957E401096029E44
:104CA000039DAE43049D6E401296019E029DAE434D
:104CB000039D6E404596019E059DB543029E75403D
:104CC0001A95049E059DAE43019D6E4015961C9E4F
:104CD00012255E40EE412A9F079D05966F401625DE
:104CE000EF41429E0F9D04976E401F25EE410396B3
:104CF000299F0A266740F741099E179D0297754034
:104D00000226F541AE46049F039D059EBD437540B6
:104D10002095039E029DB5437D401695029F7546E2
:104D2000BD432F4677401F97059E7546029FAE43B1
:104D30007E401396049F059EB743369E6F406640A3
:104D4000309D089CB64665401D24E5413E9E644664
:104D500066401424E64119970396269F079C049504
:104D600067401C24E741239C172554400297EC41DF
:104D70003746049D7646AF4377401C97029F039EBB
:104D8000B7436F404E97029F2546BD432F4677405D
:104D90001B977646029FA6437E402396049F764645
:104DA000B7436740339E069C269766401324E6412E
:104DB000319F059657400E22D741409C0A9A149D78
:104DC00054401B22D441A646099C289A5D4062406B
:104DD0001924E2417446BC4304237440DD41249409
:104DE00074461346A3431C467C402B4618949343B9
:104DF00074465C40AE43564017961D94059E3D9CFC
:104E0000B7436F404997349E089A2F9F564001221E
:104E1000D641624657400522D741069A0F9B54401F
:104E20000D22D4413C9A35465A400C23DA410A9E61
:104E3000229B73401F26F3412646BE436E40409698
:104E40001646A6437E4053961E46964374402E4611
:104E50009E43AF4356405F40219B489A14945A406A
:104E6000569B22975A40419B169D5A40259B4E9F28
:104E70005A40129B4A966B407B40189C539E63405D
:104E800073401F240793E3411E465640B446199FC2
:104E9000159E119D469C7E406C404C9D269F6C400B
:104EA0007E404F9D499F33466C407B40399D229FF9
:104EB0006C407B401D46654006943A9E449C74407D
:104EC000509E7440549E74404B9E744001941F2425
:104ED000E3411F9F459E019C7E4063401B9F1D9C9C
:104EE0007E406640149C6640374657402D9C3B9A56
:104EF0005440529A5440559A5440379A54401F2275
:104F0000D6413246A6466240109E209C66401C9CBC
:104F10006640249C6640409C6640019C0296664028
:104F20000A96139E1A9C7440239E7440179E7440E8
:104F30004A9E66401F240396E641069C66400996F9
:104F4000439E479C6640519C66404D9C6640389C01
:104F500066400196079E019C66400896029E1F24AB
:104F6000E641019C66400696039E7446664007969D
:104F70002D9C66467440A646119C0A265440F44176
:104F80000494089E1B9C74400A26F4410394179EC7
:104F900015247E40E6410296069E259C7440192603
:104FA000F4410194049E039CB443764674401E9ED3
:104FB000119410CE1E96119E74401194029E039C73
:104FC000A643049C66403696029E019CB443039E11
:104FD00074403594019E7446B443029E74403294EA
:104FE000049E7446A643019C66403396439E122459
:104FF0005E40E6410596219E069C66401624E641E9
:1050000004961C9E1E246E40E6410396189E0A9C40
:1050100066400924E6410296089E149C74400126CD
:10502000F441A646039E049CA643059C66402E962A
:10503000039E029CB443049E74402D94029E7446C9
:10504000B443039E74402C94059C7646B443029E60
:1050500074402F94059E049CB443764674402B9470
:10506000129E0A9C66401F24E64105963A9E099CC2
:1050700066401D24E6410496239E13247E40E641AB
:105080000396419E069C66401C24E6410296379C8E
:10509000664674401726F441A646039E049CA64328
:1050A000059C66404296039E029CB443049E744055
:1050B0004194029C7646A643039C66403F96059C1D
:1050C0007646B443029E74403E94059E049CB443CD
:1050D000764674403D94079E159C74401226F44118
:1050E00005943B9E644666400E24E64104964C9E21
:1050F0001B245640E6410396089E1D9C74401826CA
:10510000F4410294389C04265C40F441A646049E77
:10511000039CB443059E74403C94039E029CB4439C
:10512000049E74402994029C7646A643039C6640E4
:105130002896059C7646B443029E74402794049EAC
:10514000059CA643744666402596449E099C66408D
:105150000124E641139C05967C400426F441049406
:10516000269E079C66400C24E641249C03966C40D6
:105170000B26F441A646399C1F265440F441019465
:10518000039E049CA643059C66402496039E744699
:10519000B443049E74401894019C7646B443039E25
:1051A00074401794019E059CB44376467440159450
:1051B000059E049CB443019E74401394109C0A9E67
:1051C0006C40A646169C74400A26F4410494099E3D
:1051D000509C74400B26F4414D9E03945E4016246F
:1051E000E6410296079E229C74401926F4410194E0
:1051F000039E049CA6437446664010961E9C1E9E09
:105200002468361D1E96109E74401094029E039CC6
:10521000A643049C66401D96029E019CB443039ED7
:1052200074403494019E7446B443029E74401C94AE
:10523000049C7646B443019E74401A9E1B947E40A3
:105240001224E6410596199E079C66401624E64105
:105250000496529E644666401F24E64103964F9E84
:105260000A245640E6410296099E4B9C7440022651
:10527000F441A646049E039CB443059E74403194B9
:10528000039E029CB443049E74401A94029E74468A
:10529000B443039E74403094059E7446A643029C1A
:1052A00066401996059E049CB44376467440469E1B
:1052B0002A945640B6461F9E089C66401D243246DE
:1052C000E241519C14265C40F4410394499E079CA2
:1052D000049266401C24E6410296409E17246E40CC
:1052E0003246E241049E039C0192B44376467440E8
:1052F0003B94029E039CA643049C66404096029EFB
:10530000039CB24362403A92019C7246A2437240AF
:105310003992049C7646019AB44354403894069CD2
:10532000489A62401324E241209C05926C400E2270
:10533000D4414E9D0A9A049455401B22D541549E57
:10534000099A042456401922D6414A9A7A40E241E9
:105350009646049C2F46059AA74357403246AA43D7
:10536000624021927246B24337976A402092059C70
:105370007246944374401F94049C059A069D94437E
:10538000724654402694089C459A66466240012421
:10539000E241479C0A9F5C400523DC41569B6B40E1
:1053A0000D25EB41559D75400C26F541539E7E40E1
:1053B0001F27FE411F46A743574023972F469F4371
:1053C000674022973746AF435F401346B3436B4075
:1053D0009443744016971294579A1493521E5792FE
:1053E00001D0FFF78DFA119A0260109A4260369A46
:1053F00082601D9AC260359A0261349A4261329A83
:1054000082611C9AC261339A02621B9A42622E9A8E
:105410008262319AC2622D9A02631A9A42632C9A6E
:105420008263309AC2632F9A0264199A42642B9A5B
:1054300082642A9AC264429A02653B9A4265419A02
:105440008265409AC2653F9A02663A9A42663E9ADF
:105450008266399AC2663D9A0267389A42673C9AD8
:105460008267379AC267299808602198486028980F
:1054700088602098C860279808611F98486125981F
:1054800088612698C8612498086223984862189811
:1054900088622298C862179808631698486315981E
:1054A00088631498C863139808641298486458B0C5
:1054B000F0BD0000F0B5D8B0044608250A68FF4EDC
:1054C0005308534033405A405B005A409308FC4F06
:1054D00053403B405A409B005A401309F94F5340F8
:1054E0003B405A401B015A40130AFF2753403F02DA
:1054F0003B405A401B025A404B6808315F085F40EE
:1055000037407B407E0073409E08ED4F5E403E403A
:105510007340B60073401E09EA4F5E403E40734040
:10552000360173401E0AFF275E403F023E40734033
:10553000360273401F0496B23E4327681B0C7E4020
:10554000120C1B041A43266063685A4062600834D8
:105550006D1EB3D5DC491E9101681191416810910F
:1055600081683691C1681D91016935914169349115
:1055700081693291C1691C91016A3391416A1B9121
:10558000816A2E91C16A3191016B2D91416B1A9103
:10559000816B2C91C16B3091016C2F91416C1991F1
:1055A000816C2B91C16C2A91016D4291416D3B91AF
:1055B000816D4191C16D4091016E3F91416E3A9173
:1055C000816E3E91C16E3991016F3D91416F38916D
:1055D000816F3C91C16F3791014680310A682992F1
:1055E0004A6821928A682892CA6820920A6927929A
:1055F0004A691F928A692592CA6926920A6A249288
:105600004A6A23928A6A1892CA6A22920A6B17928D
:105610004A6B16928A6B1592CA6B14920A6C13929B
:105620004A6C12920C225792339F2B9A1D9D574021
:105630003D9A2C9C5740259A5740139A57401A9AE6
:105640005540409A5540219A5540229A5540079519
:105650001F22D5411B9B2A9A2E465340389A7E40E2
:1056600053400F96269A369D5340129A359E5340CA
:105670002D9A66405540419A3F9C55406640299A74
:10568000289C55406640189A179C554066401A461B
:105690001F24E34173409C46349C309BAE465C40E3
:1056A0003A9B6A405C40209B119D5C40169B5C408D
:1056B00023467B402E9F7D40429F7D403C9F7D4006
:1056C000249F7D4004951F25EC41049D109F6C4054
:1056D000319D6F403B9D6F40379D6F40239D6F40D4
:1056E000029777400A971C9E199D329F6E40399D04
:1056F0006E401F9D6E40149D6E401F250396EE4127
:1057000075466E402F9D09966F403E9D1F266F4047
:10571000279D6F40159D6F40079D7D400895029D18
:10572000F5412E467E400696039E049D0A276E4054
:1057300007960F9E119D75402D9EAE466640FE4118
:1057400004963A9E089D6E40FE411F9F03965F405F
:1057500015263D46F5410295139F069D19266F407B
:10576000F7411E9D01972E1D2F681E96039E049DD6
:10577000AE4375466E4077402D97029F039EB74318
:10578000049E77404697019F029EB743039E774051
:105790004497019F029EBD4375404395049E754604
:1057A000AE437E40329F65466F401225EF414896DA
:1057B00005972B9F069E092577401626F7410497EB
:1057C0003B9F1E265740F74103970A9F219E7E402C
:1057D000EE410296169F089D6F400125EF41BE469F
:1057E000039D049F2E46BE43059F7E403B96029E2E
:1057F000049FAE437E401196029E7546039FB543BB
:105800007D403A95059F7546AF4377404797059F82
:10581000049E1D9DBE4377467E400A9F21967D4093
:105820001F27FD410595099E2C9D132775401D26B8
:10583000F5410495399D069E5D40FD41259F0395E8
:1058400077401C25EF41249E0F9DBE466E401725D4
:10585000EE410196039E049DAE43059D6E40039D5F
:105860005296AF43049D6F404C97019E7746039D2F
:10587000BE436E405096019E059DB5437D405195B7
:10588000059E049D1B9FB543019E7540079E56953E
:1058900077401225EF4105972E9F0F9E77400E26E9
:1058A000F7410497419F1B266740F7410397209ECD
:1058B000089D6E401825EE41029607E02222222222
:1058C0000C0C0C0CF000F000A0720000159D664658
:1058D00075400426F541AE463D46049F2E46BE4324
:1058E000059F7E405596029E049FAE437E404F9694
:1058F000029E7546039FB5437D405495059F7546AE
:10590000AF4377404D97059F049EBE436E4041963E
:10591000359F099E01257740EF410597199F042681
:105920005F40F7410497389F079E0B2577400C2670
:10593000F741379E03975640EE41189D0296654009
:105940001F26F541AE463D46049F2E46BE43059FA9
:105950007E403796029E049FAE437E403996029E5B
:105960007546039FB5437D404B95059F7546AF43F4
:1059700077403897059F049EBE436E40109D259644
:10598000554005950A9F1A9D0A267D40F5410495CC
:105990003F9F099E0B257740EF41279D6646754046
:1059A0001626F54102950397079E129D754019260C
:1059B000F5410195049DAF43059D6F401E9D40CD6F
:1059C0001E957E401096029E039DAE43049D6E4040
:1059D0001296019E029DAE43039D6E404596019E28
:1059E000059DB543029E75401A95049E059DAE43E4
:1059F000019D6E4015961C9E12255E40EE412A9F29
:105A0000079D05966F401625EF41429E0F9D049716
:105A10006E401F25EE410396299F0A266740F741F5
:105A2000099E179D029775400226F541AE46049FD8
:105A3000039D059EBD4375402095039E029DB54381
:105A40007D401695029F7546BD432F4677401F97B0
:105A5000059E7546029FAE437E401396049F059EA9
:105A6000B743369E6F406640309D089CB646654001
:105A70001D24E5413E9E644666401424E641199784
:105A80000396269F079C049567401C24E741239CAE
:105A9000172554400297EC413746049D7646AF43A4
:105AA00077401C97029F039EB7436F404E97029F1B
:105AB0002546BD432F4677401B977646029FA64357
:105AC0007E402396049F7646B7436740339E069CEC
:105AD000269766401324E641319F059657400E22D3
